:060000008A150A16002813
:10000800FF00030E8301EC000A08EB008A01700868
:10001800A3007108A2007208A1000408A4008B1CA8
:100028004F288B1001308506EA0AE20AA8010A3037
:1000380028020318412828083F3E84000008013A96
:10004800031D3F282808F000F00D701070082B3EA3
:10005800F200720884000008013EF0000030031826
:10006800013E840A0007F1007208840070088000CD
:100078007108840A8000A80A1B28DD1D4F2867081C
:10008800003C031D49286608003C03184F2801302E
:10009800E602031CE7032308F0002208F100210808
:1000A800F200240884006B088A006C0E8300FF0E9F
:0400B8007F0E0900AE
:0400BC000000080038
:1000C000103083120313FD00FD0B642800000800AC
:1000D000083083120313FC002330FD00FD0B6E2853
:0600E000FC0B6E28080075
:1000E60083160313B81B7A28831287137C2883127E
:1000F60087178316381B82288312071384288312D6
:1001060007178316B81A8A28831287128C28831237
:1001160087168316381A9228831207119428831299
:1001260007155E18982807149928071087145E206B
:1001360087108316B819A22883128713A42883125E
:10014600871783163819AA2883120713AC28831237
:1001560007178316B818B22883128712B428831299
:10016600871683163818BA2883120711BC288312FB
:1001760007155E18C0280714C128071087145E20CB
:0E01860087105E1CC8286820C9286020080069
:10019400831603131419D8281F301105F1007108B0
:1001A400003A031DD8280130F000D928F0010800D6
:0E01B400831203135C088A005B0882000800B7
:1001C20083160313B601B7013708123C031DEB284F
:1001D20036088E3C031CF628CA2070080319F22840
:1001E200F628B60A0319B70AE52812303702031DAA
:1001F200FC288F303602031C01297B30F0000629CF
:0C0202001114111C05290229F00108004C
:10020E00831203138C118316360883129300831600
:10021E00141D12290E2983128C19162912298316E0
:10022E00111B1B29F0011E2911150230F0000800C8
:08023E008316031311150800DB
:10024600831203138C118316911583128C192C2992
:1002560028291308F10083163608003A031D3529AC
:1002660091163629911283128C1183161116831258
:0C0276008C193E293A297108F00008009C
:0E028200831603139114911C47294429080088
:10029000831203135E1083163608B80073205E14B1
:0202A000080054
:1002A2000F30831603133205F0003030F0070800D8
:1002B200831603133208F30083163208F200B20ADF
:1002C2003308F0003408F100B30A0319B40A7008C5
:1002D2008312DB007108DC00DA208A110A12F000B6
:1002E20072088400700880007208840000080319F4
:0A02F2007B295D297308F000080065
:1002FC0083120313F8010830FC00700DF80D74081C
:10030C00F80203188B29F8070310F00DFC0B832956
:02031C000800D7
:10031E00831603133208F000F00CF013F00CF013F8
:0E032E00F00CF013F00CF0133030F007080064
:10033C00B029803083160313B200C329C030B20039
:10034C00C3299430B200C329D430B200C329803001
:10035C00B200C329831603133208013A03199F29EB
:10036C003208023A0319A4293208033A0319A729BF
:10037C003208043A0319AA29AD293303F0003208D4
:10038C00F0077008B2007008B80073205E10831676
:10039C00B50135083407840000080319DE29350837
:1003AC00340784000008B60048218316B50ACF290B
:0603BC0083125E1408002C
:1003C20083120313F801F9011030FC00710DF80DCE
:1003D200F90D7408F8027508031C750FF902031869
:1003E200F9297408F80775080318750FF90703103F
:0A03F200F00DF10DFC0BE7290800E7
:1003FC00E120D030B60007213208B6000721412198
:10040C00D130B6000721B60123217008A9001F21A5
:08041C0083122908F00008001A
:10042400A53083120313FD00FD0B162A0000000003
:020434000800BE
:1004360083120313FB01FA01F901F801A001730D00
:10044600F80D7408F8027508031C750FF902760892
:10045600031C760FFA027708031C770FFB020001D4
:10046600031C0130A002F30D0730FC00730DF80DDC
:10047600F90DFA0DFB0DA00D7408731C542AF80231
:100486007508031C750FF9027608031C760FFA022D
:100496007708031C770FFB020001031C0130A00242
:1004A600652AF80775080318750FF9077608031803
:1004B600760FFA0777080318770FFB070001031872
:1004C6000130A007F30DFC0B392A720DF80DF90D5A
:1004D600FA0DFB0DA00D7408731C832AF80275082B
:1004E600031C750FF9027608031C760FFA027708CB
:1004F600031C770FFB020001031C0130A002942AA3
:10050600F80775080318750FF90776080318760FAC
:10051600FA0777080318770FFB0700010318013065
:10052600A007F20D0730FC00720DF80DF90DFA0D5B
:10053600FB0DA00D7408721CB22AF8027508031C84
:10054600750FF9027608031C760FFA027708031C6A
:10055600770FFB020001031C0130A002C32AF80733
:1005660075080318750FF90776080318760FFA074A
:1005760077080318770FFB07000103180130A0075F
:10058600F20DFC0B972A710DF80DF90DFA0DFB0D06
:10059600A00D7408721CE12AF8027508031C750F79
:1005A600F9027608031C760FFA027708031C770F08
:1005B600FB020001031C0130A002F22AF8077508AD
:1005C6000318750FF90776080318760FFA077708E8
:1005D6000318770FFB07000103180130A007F10D80
:1005E6000730FC00710DF80DF90DFA0DFB0DA00D8D
:1005F6007408711C102BF8027508031C750FF9029C
:100606007608031C760FFA027708031C770FFB02A5
:100616000001031C0130A002212BF80775080318FE
:10062600750FF90776080318760FFA077708031887
:10063600770FFB07000103180130A007F10DFC0B33
:10064600F52A700DF80DF90DFA0DFB0DA00D7408C5
:10065600711C3F2BF8027508031C750FF90276080A
:10066600031C760FFA027708031C770FFB020001C2
:10067600031C0130A002502BF80775080318750FEC
:10068600F90776080318760FFA0777080318770F25
:10069600FB07000103180130A007F00D0730FC002E
:1006A600700DF80DF90DFA0DFB0DA00D7408701CF8
:1006B6006E2BF8027508031C750FF9027608031CE9
:1006C600760FFA027708031C770FFB020001031C62
:1006D6000130A0027F2BF80775080318750FF9077C
:1006E60076080318760FFA0777080318770FFB07C3
:1006F600000103180130A007F00DFC0B532B7018F6
:10070600922B7408F80775080318750FF907760811
:100716000318760FFA0777080318770FFB07080008
:100726000A3083120313F4006808F0007E210A30B1
:10073600F4007E217808F00030307007CA000A30D5
:10074600F4006808F0007E217808F0003030700769
:10075600CB003A30CC000A30F4006908F0007E2164
:100766000A30F4007E217808F00030307007CD00A2
:100776000A30F4006908F0007E217808F000303075
:100786007007CE00CF0101308316B2000C30B300E3
:080796004A30B4009E21080066
:10079E0083160313B003B0033008003C0318DC2BA0
:1007AE00B003000000000000D32B0000000000008A
:0607BE000000000008002D
:1007C400A03083120313F0000F30F100F201F301A3
:0207D40008001B
:1007D600043083160313B200FE2170088316B2009C
:1007E6008F2170088312CA0004308316B200FE21DE
:1007F60070088316B200512170088312CB002F3087
:10080600CC0005308316B200FE2170088316B200B4
:100816008F2170088312CD0005308316B200FE21A9
:1008260070088316B200512170088312CE002F3053
:10083600CF0006308316B200FE2170088316B20080
:100846008F2170088312D00006308316B200FE2175
:1008560070088316B200512170088312D10002304D
:100866008316B200FE2170088316B2008F2170082D
:100876008312D50002308316B200FE21700883165B
:10088600B200512170088312D6003A30D7000130E9
:100896008316B200FE2170088316B2008F217008FD
:1008A6008312D80001308316B200FE217008831629
:1008B600B200512170088312D9002030D2002030B6
:1008C600D3002030D400DA018316B201FE2170086D
:1008D600C90001308316B2000130B3004A30B400BB
:0408E6009E21080047
:1008EA00E120D030B60007213008B60007213108D0
:0808FA00B60007211F210800D0
:10090200831203132230FC00F801F901FA01FB0102
:10091200FC030319B72C0310FB0CFA0CF90CF80CAE
:10092200F30CF20CF10CF00C031C892CFC030319E0
:10093200A92C7408F80775080318750FF9077608CB
:100942000318760FFA0777080318770FFB078D2C29
:100952007408F80775080318750FF9077608031865
:0E096200760FFA0777080318770FFB070800D7
:100970004A3083160313B200C730B3001530B400F9
:10098000592170088316B4000230B2000130B30060
:100990009E213C30F4000030F5006608F000670846
:1009A000F100E12170088316B0007108B1000A302F
:1009B000F4000030F5003008F0003108F100E121CA
:1009C0000A30F4000030F500E1217808F0007908E1
:1009D000F10030307007CA000A30F4000030F50032
:1009E00083163008F0003108F100E1217808F000AA
:1009F0007908F10030307007CB003A30CC003C3041
:100A0000F4000030F5006608F0006708F100E1210D
:100A10007808F0007908F10070088316B0007108BA
:100A2000B1000A30F4000030F5003008F000310861
:100A3000F100E12130307007CD000A30F4000030C1
:100A4000F50083163008F0003108F100E121780844
:100A5000F0007908F10030307007CE00CF0102308D
:100A60008316B2000C30B3004A30B4009E21080057
:100A70003C30831203136607F10067080318013E38
:100A8000F2007108E6007208E70072080E3C031DD0
:100A90004B2D71080F3C0318512D0130E60000303A
:100AA000E700B8242130FC007630FD00FD0B562D08
:080AB000FC0B562D00000800AC
:100AB8008312031369083B3A031D642DE901652D70
:100AC800E90A93232130FC007630FD00FD0B6A2DE6
:080AD800FC0B6A2D0000080070
:100AE000EB235508323A031D8A2D5608333A031D6D
:100AF0008A2D3030D5003030D6008316B0018030DA
:100B0000B10075240230B000B1017524B001B1010B
:100B10007524D92D83125508303A031DA52D56088A
:100B2000393A031DA52D3130D5003030D60083165B
:100B3000B0018030B10075240230B0001030B10037
:100B40007524B001B1017524D92D83125508313AAD
:100B5000031DC02D5608393A031DC02D3230D50073
:100B60003030D6008316B0018030B10075240230D9
:100B7000B0002030B1007524B001B1017524D92D29
:100B80008312D60A02308316B200FE217008C90013
:100B9000700AC9008316B0018030B100752402309C
:100BA000B000831249088316B1007524B001B10169
:100BB0007524EB232130FC007630FD00FD0BDE2D8B
:080BC000FC0BDE2D0000080013
:100BC800EB235808353A031DFE2D5908393A031D01
:100BD800FE2D3030D8003030D9008316B001803077
:100BE800B10075240130B000B1017524B001B10124
:100BF80075249E2E83125808303A031D192E590861
:100C0800393A031D192E3130D8003030D9008316F7
:100C1800B0018030B10075240130B0001030B1004F
:100C28007524B001B10175249E2E83125808313AFB
:100C3800031D342E5908393A031D342E3230D8009A
:100C48003030D9008316B0018030B10075240130EE
:100C5800B0002030B1007524B001B10175249E2E7A
:100C680083125808323A031D4F2E5908393A031D8A
:100C78004F2E3330D8003030D9008316B001803081
:100C8800B10075240130B0003030B1007524B001D6
:100C9800B10175249E2E83125808333A031D6A2E1B
:100CA8005908393A031D6A2E3430D8003030D9003B
:100CB8008316B0018030B10075240130B000403097
:100CC800B1007524B001B10175249E2E8312580815
:100CD800343A031D852E5908393A031D852E3530BF
:100CE800D8003030D9008316B0018030B1007524A7
:100CF8000130B0005030B1007524B001B101752445
:100D08009E2E8312D90A01308316B200FE21700884
:100D1800C900700AC9008316B0018030B10075247B
:100D28000130B000831249088316B1007524B00160
:100D3800B1017524EB232130FC007630FD00FD0B5A
:0A0D4800A32EFC0BA32E00000800F0
:100D5200EB234A08333A031DC42E4B08313A031DD4
:100D6200C42E3030CA003130CB008316B00180303F
:100D7200B10075240430B0000130B1007524B00117
:100D8200B10175242E2F83124A08303A031DDF2E3B
:100D92004B08393A031DDF2E3130CA003030CB0008
:100DA2008316B0018030B10075240430B0001030D9
:100DB200B1007524B001B10175242E2F83124A08A7
:100DC200313A031DFA2E4B08393A031DFA2E3230FE
:100DD200CA003030CB008316B0018030B1007524D8
:100DE2000430B0002030B1007524B001B101752487
:100DF2002E2F83124A08323A031D152F4B08393A17
:100E0200031D152F3330CA003030CB008316B001DA
:100E12008030B10075240430B0003030B100752448
:100E2200B001B10175242E2F8312CB0A0430831630
:100E3200B200FE217008C900700AC9008316B00111
:100E42008030B10075240430B00083124908831643
:100E5200B1007524B001B1017524EB232130FC00EF
:100E62007630FD00FD0B332FFC0B332F0000080002
:100E7200831203136808173A031D412FE801422F1A
:100E8200E80A93232130FC007630FD00FD0B472F4A
:080E9200FC0B472F00000800D3
:100E9A0083120313A8010A30280203188E2F280888
:100EAA00083E8316B000831228083F3E84000008DB
:100EBA008316B100752483122808123E8316B000E7
:100ECA0083122808F000F00D701070082B3E840081
:100EDA000008F300840A0008F4007408F000F10125
:100EEA0070088316B1007524831228081C3E8316E5
:100EFA00B00083122808F000F00D701070082B3E25
:100F0A008400FF3000058316B10075248312A80AF5
:100F1A00502F26308316B00083122A088316B10098
:100F2A0075242730B00083125D088316B10075243A
:100F3A002830B000831269088316B100752429305D
:100F4A00B000831268088316B10075242C30B000F3
:100F5A0083126708F000F10170088316B100752446
:100F6A002D30B000FF30831266058316B100752458
:020F7A0008006D
:100F7C0083120313E60A0319E70A67080E3C031DE4
:100F8C00C92F66080F3C0318CF2F0130E600003044
:100F9C00E700B8242130FC007630FD00FD0BD42F87
:080FAC00FC0BD42F000008002B
:100FB4008316031320088312E50083162108F10029
:100FC4000130F00071080319EB2FF00D7010FF3E93
:100FD400E52F70088312E400F0097008E300803004
:100FE4008316200784007008800584137008800528
:020FF4000800F3
:101000008A11EB238A154D08313A031D23284E0817
:10101000323A031D23283030CD003130CE00831604
:10102000B0018030B1008A1175248A150530B000F6
:101030000130B1008A1175248A15B001B1018A11FD
:1010400075248A15652883124D08303A031D4428FB
:101050004E08393A031D44283130CD003030CE00DF
:101060008316B0018030B1008A1175248A150530CD
:10107000B0001030B1008A1175248A15B001B10199
:101080008A1175248A1565288312CE0A05308316C5
:10109000B2008A11FE218A157008C900700AC900C1
:1010A0008316B0018030B1008A1175248A1505308D
:1010B000B000831249088316B1008A1175248A157D
:1010C000B001B1018A1175248A158A11EB238A15A2
:1010D0002130FC007630FD00FD0B6C28FC0B6C28E9
:0410E0000000080004
:1010E4008A11E2238A15E830F4000330F500F60192
:1010F400F7018A1181248A1570088316AC007108DF
:10110400AD007208AE007308AF002408F40025088F
:10111400F500F601F7018A111B228A15700883165F
:10112400AC007108AD007208AE007308AF0070081F
:10113400F5007108F6007208F7007308F800F80C5F
:10114400F70CF60CF50CF813F80CF70CF60CF50C80
:10115400F8137508F0007608F1007708F2007808B3
:10116400F300F30CF20CF10CF00CF3137008A8006C
:101174007108A9008A11E2238A1583162608F4004F
:101184002708F500F601F7018A1181248A158316D0
:101194002808F9002908FA00FB01FC010330F800D3
:1011A4007908F4007A08F5007B08F6007C08F7005B
:1011B40078080319E428F40DF50DF60DF70D7410F5
:1011C400FF3EDB288A111B228A1570088316AC00A7
:1011D4007108AD007208AE007308AF000A30F40065
:1011E4000030F5002808F0002908F1008A11E121F7
:1011F4008A1570088316A8007108A90000307102CE
:10120400031D062903307002031809296529831276
:101214006508840083162F08003C031D1B292E0833
:10122400003C031D1B292D08003C031D1B292C0811
:10123400003C031862298312640880048316290879
:1012440003193629AA01AB0100302B02031D2C29F6
:1012540029082A0203183629B0018A11CF238A15D6
:10126400AA0A0319AB0A26292808B0008A11CF2339
:101274008A158312630880058316290803195429E3
:10128400AA01AB0100302B02031D4A2929082A02B6
:1012940003185429B0018A11CF238A15AA0A031905
:1012A400AB0A44292808B0008A11CF238A150130DB
:1012B400AC02031CAD02031CAE02031CAF020C29DA
:0812C400831263088005080095
:1012CC0083160313A9012508F1000130F000710801
:1012DC0003197429F00D7010FF3E6E297008A800D8
:1012EC002408840070080005F10071080130031D0A
:1012FC000030F0002708F0060319A1292608003C4D
:10130C00031891298A1112228A158A1112228A1520
:10131C008316A60384292408840028080005F100FC
:10132C0071080130031D0030F0002708F006031986
:0C133C00A129FF30A9002908F0000800DA
:101348008A11EB238A155008313A031DC729510821
:10135800373A031DC7293130D0003430D100831605
:10136800B0018030B1008A1175248A150630B000AA
:101378001430B1008A1175248A15B001B1018A119F
:1013880075248A15E8298312D10A06308316B2001B
:101398008A11FE218A157008C900700AC9008316CF
:1013A800B0018030B1008A1175248A150630B0006A
:1013B800831249088316B1008A1175248A15B00171
:1013C800B1018A1175248A158A11EB238A152130F7
:1013D800FC007630FD00FD0BEF29FC0BEF29000027
:0213E8000800FB
:1013EA008312031327080A3A0319662A2708F0000A
:1013FA00F00D701070082B3EEF006F088400000893
:10140A00F000840A0008F1003C30F4000030F500D6
:10141A008A11E1218A156430F4000030F5008A113E
:10142A00E1218A150A30F4000030F5008A11E12121
:10143A008A157808F0007908F10030307007CA0080
:10144A006F0884000008F000840A0008F1003C30AC
:10145A00F4000030F5008A11E1218A150A30F400FF
:10146A000030F5008A11E1218A150A30F4000030B3
:10147A00F5008A11E1218A157808F0007908F1004F
:10148A0030307007CB006F0884000008F000840A2F
:10149A000008F1003C30F4000030F5008A11E12127
:1014AA008A150A30F4000030F5008A11E1218A1504
:1014BA007808F0007908F10030307007CC00CD01CF
:1014CA00702A4A308316B200FB30B3000730B400EA
:1014DA008A1159218A1502308316B2000E30B300E0
:0C14EA004A30B4008A119E218A150800C7
:1014F60083120313DD1DAC2A00306706031D852AFF
:1015060000306606031DA92A5D16491CA82A643008
:101516008316A4001930A5001E30A6000030A700CF
:101526007220583083160313A4001B30A5004630E2
:10153600A6000030A700722083160313A401A5019C
:101546006430A6000030A7007220AC2A8312031371
:041556005D1208001A
:10155A004A3083160313B200B730B3001430B40014
:10156A008A1159218A1570088316B4000130B20015
:10157A000130B3008A119E218A154A308316B200BF
:10158A002E30B3001530B4008A1159218A1570081B
:10159A008316B4000230B2000130B3008A119E21D2
:1015AA008A150512FF3088008510051185118B13E5
:1015BA008A114D278A150130B2008A11FE218A1537
:1015CA0070088316B1002A30B0008A1175248A1572
:1015DA000230B2008A11FE218A1570088316B10002
:1015EA002B30B0008A1175248A158B174A30B20045
:1015FA00C830B3001430B4008A1159218A15700812
:10160A008316B4000230B2000130B3008A119E2161
:10161A008A1570308316A4001730A5003C30A60046
:10162A000030A70072200D3083120313FC00FB3038
:10163A00FD00FD0B1E2BFC0B1E2B0000000088304A
:10164A008316A4001330A5003C30A6000030A70082
:10165A0072204E3083120313FC00EB30FD00FD0BA9
:10166A00342BFC0B342B70308316A4001730A500E2
:10167A003C30A6000030A70072200D3083120313FD
:10168A00FC00FB30FD00FD0B482BFC0B482B000037
:10169A00000088308316A4001330A5003C30A60051
:1016AA000030A70072204E3083120313FC00EB3087
:1016BA00FD00FD0B5E2BFC0B5E2B70308316A40025
:1016CA001730A5003C30A6000030A70072200D306C
:1016DA0083120313FC00FB30FD00FD0B722BFC0B85
:1016EA00722B0000000088308316A4001330A50076
:1016FA003C30A6000030A700722083120313861E16
:10170A00882B0000822B0630FB001330FC00AD3022
:10171A00FD00FD0B8E2BFC0B8E2BFB0B8E2B000082
:10172A00000001308316B8008A1173208A15051645
:02173A000800A5
:10173C008312031327080A3A031DAF2B4A30831672
:10174C00B200DC30B3001530B4008A1159218A156F
:10175C00CB2B27083F3E84000008003A031DC12B09
:10176C004A308316B200E430B3001530B4008A114D
:10177C0059218A15CB2B4A308316B200EC30B300BA
:10178C001530B4008A1159218A1502308316B20023
:10179C000130B3004A30B4008A119E218A1508002A
:1017AC004A3083160313B2003F30B3001530B40037
:1017BC008A1159218A1570088316B4000130B200C1
:1017CC000130B3008A119E218A154A308316B2006B
:1017DC006130B3001530B4008A1159218A15700894
:1017EC008316B4000230B2000130B3008A119E217E
:1017FC008A15EA01A80106308316A4000130A50061
:10180C005A30A600A701662170080319582C8312C0
:10181C00A8010A3028020318232C2808F000F00D28
:10182C00701070082B3E84008001840A8001280807
:10183C003F3E84008001A80A0F2C01308316B800AB
:10184C008A1173208A154A308316B2005030B300C7
:10185C001530B4008A1159218A1570088316B4000A
:10186C000130B2000130B3008A119E218A15B830C4
:10187C008316A4000B30A5006430A6000030A7002E
:10188C007220063083120313FB001330FC00AD30C2
:10189C00FD00FD0B4F2CFC0B4F2CFB0B4F2C0000B9
:1018AC000000A02C06308316A4000230A5005A308C
:1018BC00A600A70166217008031D6A2C83126A0812
:1018CC000A3A03196A2C9F2C01308316B8008A112E
:1018DC0073208A154A308316B200D330B30015300A
:1018EC00B4008A1159218A1570088316B40001308E
:1018FC00B2000530B3008A119E218A15B8308316C8
:10190C00A4000B30A5006430A6000030A7007220A4
:10191C00063083120313FB001330FC00AD30FD00C6
:10192C00FD0B962CFC0B962CFB0B962C0000000050
:10193C00A02C012C01308316B8008A1173208A1553
:02194C00080091
:10194E008312031327080A3A031DDB2C3F08031DDD
:10195E00CD2C4008031DCD2C4108031DCD2C420873
:10196E00031DCD2C4308031DCD2C4408031DCD2C87
:10197E004508031DCD2C4608031DCD2C4708031D1D
:10198E00CD2C4808031DCD2CF101CF2C0130F100D8
:10199E007108013A031DD72C851405118511DA2C17
:1019AE00851005118515122D27083F3E840000086D
:1019BE000319E52C851005158511122D3F08031D01
:1019CE00052D4008031D052D4108031D052D420858
:1019DE00031D052D4308031D052D4408031D052D6C
:1019EE004508031D052D4608031D052D4708031D3B
:1019FE00052D4808031D052DF101072D0130F100BD
:101A0E007108013A031D0F2D851405118511122D34
:081A1E00851005118515080073
:101A2600831203132A1ED62D0A30F4006908F0002B
:101A36008A117E218A150A30F4008A117E218A15C0
:101A46007808F000303070078316A000A101031853
:101A5600A10A0130B2008A11FE218A157008831688
:101A6600B2008A118F218A1500302106031D3D2DF3
:101A760070082006031DD32D0A30F400831269086E
:101A8600F0008A117E218A157808F0003030700740
:101A96008316A000A1010318A10A0130B2008A1121
:101AA600FE218A1570088316B2008A1151218A1503
:101AB60000302106031D612D70082006031DD32D5D
:101AC6000A30F40083126808F0008A117E218A1514
:101AD6000A30F4008A117E218A157808F000303029
:101AE60070078316A000A1010318A10A0230B200F4
:101AF6008A11FE218A1570088316B2008A118F2179
:101B06008A1500302106031D8A2D70082006031D44
:101B1600D22D0A30F40083126808F0008A117E2163
:101B26008A157808F000303070078316A000A101EE
:101B36000318A10A0230B2008A11FE218A15700824
:101B46008316B2008A1151218A1500302106031D21
:101B5600AE2D70082006031DD22D8312AA16491C2D
:101B6600D22D88308316A4001330A5004630A60077
:101B76000030A7007220703083160313A4001730BC
:101B8600A5001E30A6000030A7007220831603139E
:101B9600A401A5016430A6000030A7007220D62D4E
:081BA60083120313AA120800C8
:101BAE00FB2DC030831203138800262EF9308800D7
:101BBE00262EA4308800262EB0308800262E99308E
:101BCE008800262E92308800262E82308800262EFF
:101BDE00F8308800262E80308800262E903088001F
:101BEE00262EBF308800262E831203132708003AB4
:101BFE000319D82D2708013A0319DD2D2708023ABB
:101C0E000319E02D2708033A0319E32D2708043A98
:101C1E000319E62D2708053A0319E92D2708063A78
:101C2E000319EC2D2708073A0319EF2D2708083A58
:101C3E000319F22D2708093A0319F52DF82D08007E
:101C4E004A3083160313B200D930B3000F30B400FC
:101C5E008A1159218A1570088316B4000130B2001A
:101C6E000130B3008A119E218A154A308316B200C4
:101C7E006130B3001530B4008A1159218A157008ED
:101C8E008316B4000230B2000130B3008A119E21D7
:101C9E008A15EA0106308316A4000130A5005A30D9
:101CAE00A600A701662170080319A12E831227082A
:101CBE00F000F00D701070082B3E84008001840A35
:101CCE00800127083F3E8400800101308316B80052
:101CDE008A1173208A154A308316B200B730B300CA
:101CEE000F30B4008A1159218A1570088316B4007A
:101CFE000130B2000130B3008A119E218A15B8302E
:101D0E008316A4000B30A5006430A6000030A70097
:101D1E007220063083120313FB001330FC00AD302B
:101D2E00FD00FD0B982EFC0B982EFB0B982E000041
:101D3E000000E92E06308316A4000230A5005A30AA
:101D4E00A600A70166217008031DB32E83126A0830
:101D5E000A3A0319B32EE82E01308316B8008A1101
:101D6E0073208A154A308316B200D330B300153073
:101D7E00B4008A1159218A1570088316B4000130F7
:101D8E00B2000530B3008A119E218A15B830831631
:101D9E00A4000B30A5006430A6000030A70072200E
:101DAE00063083120313FB001330FC00AD30FD0030
:101DBE00FD0BDF2EFC0BDF2EFB0BDF2E00000000D9
:101DCE00E92E512E01308316B8008A1173208A1520
:021DDE000800FB
:101DE0008316031387100710071187120713871331
:101DF00083128710071087130713871207118A11A0
:101E000068208A158A1168208A158A1168208A1527
:101E10008716071587148A115E208A1587108A1184
:101E200068208A1587148A115E208A1587108A1106
:101E300068208A1587148A115E208A1587108A11F6
:101E400068208A15071187148A115E208A15871069
:101E50008A1168208A1587148A115E208A158710D6
:101E60008712871787148A115E208A1587108A11B6
:101E700068208A158713071587148A115E208A1532
:101E80008710071187148A115E208A1587108A111E
:101E900068208A1587148A115E208A158710071515
:101EA00087148A115E208A1587108A1168208A1586
:101EB000071187148A115E208A1587108717071764
:101EC0008716071587148A115E208A1587108A11D4
:081ED00068208A155E14080069
:101ED8008A11DA208A150A128000840ADB0A03199B
:0A1EE800DC0AF003031D6C2F080054
:101EF20083160313141394130716871538308312AD
:041F0200940008003F
:101F0600FF3083120313DF00FF30E000FF30E100F3
:101F1600FF30C3309F05C0309F0083169F17831282
:041F26001F1408007C
:102000004A3083160313B2009530B3000F30B4008A
:102010000A1259210A1670088316B4000130B20062
:102020000130B3000A129E210A164A308316B2000C
:102030002E30B3001530B4000A1259210A16700868
:102040008316B4000230B2000130B3000A129E21A0
:102050000A162B308316B2000A12FE210A167008E7
:102060008316B2000A128F210A1670088312CA0062
:102070002B308316B2000A12FE210A16700883164E
:10208000B2000A1251210A1670088312CB003A30AE
:10209000CC002A308316B2000A12FE210A167008FC
:1020A0008316B2000A128F210A1670088312CD001F
:1020B0002A308316B2000A12FE210A16700883160F
:1020C000B2000A1251210A1670088312CE00CF0105
:1020D00002308316B2000630B3004A30B4000A1250
:1020E0009E210A160B30FB002630FC005D30FD00FF
:1020F000FD0B7828FC0B7828FB0B782800000000EB
:0E21000001308316B8000A1273200A16080078
:10210E00831203138510051185114A308316B20010
:10211E001D30B3001530B4000A1259210A1670088A
:10212E008316B4000130B2000130B3000A129E21B2
:10213E000A160A124D270A164A30B2002E30B30084
:10214E001530B4000A1259210A1670088316B4000D
:10215E000230B2000130B3000A129E210A16063078
:10216E00FB001330FC00AD30FD00FD0BBC28FC0B5A
:10217E00BC28FB0BBC28000000000A12EB230A1639
:10218E000130A800EA0183122808013A031D4F29E5
:10219E004A308316B200A530B3001530B4000A12CF
:1021AE0059210A1670088316B4000230B2000130AD
:1021BE00B3000A129E210A16EA0106308316A40005
:1021CE000130A5005A30A600A7018A150A12662111
:1021DE008A110A1670080319FA288312EA010A12E4
:1021EE00A9260A164D2906308316A4000230A50032
:1021FE005A30A600A7018A150A1266218A110A16FC
:10220E007008031912298312EA018A150A12002096
:10221E008A110A164D2906308316A4000330A50034
:10222E005A30A600A7018A150A1266218A110A16CB
:10223E00700803192A298312EA018A150A12A421A9
:10224E008A110A164D2906308316A4000430A50003
:10225E005A30A600A7018A150A1266218A110A169B
:10226E007008031D402983126A080A3A031940298F
:10227E004D2983120230A8002130FC007630FD007B
:10228E00FD0B4729FC0B472900004E29E428602B43
:10229E0083122808023A031DBA294A308316B20067
:1022AE00B630B3001530B4000A1259210A16700860
:1022BE008316B4000230B2000130B3000A129E2120
:1022CE000A16EA0106308316A4000130A5005A3022
:1022DE00A600A7018A150A1266218A110A1670082D
:1022EE0003197F298312EA010A1270250A16B829EA
:1022FE0006308316A4000230A5005A30A600A701AE
:10230E008A150A1266218A110A1670080319952970
:10231E008312EA010A12E4250A16B829063083163A
:10232E00A4000430A5005A30A600A7018A150A128F
:10233E0066218A110A167008031DAB2983126A08DA
:10234E000A3A0319AB29B82983120330A8002130A9
:10235E00FC007630FD00FD0BB229FC0BB22900000B
:10236E00B9296929602B83122808033A031D462ACE
:10237E004A308316B2007230B3001530B4000A1220
:10238E0059210A1670088316B4000230B2000130CB
:10239E00B3000A129E210A160A1293230A168830D7
:1023AE008800EA0106308316A4000130A5005A30D9
:1023BE00A600A7018A150A1266218A110A1670084C
:1023CE000319F0298312EA010A1239270A162A166E
:1023DE003F2A06308316A4000230A5005A30A6000C
:1023EE00A7018A150A1266218A110A1670080319A6
:1023FE00072A8312EA010A125C250A162A163F2AB8
:10240E0006308316A4000330A5005A30A600A7019B
:10241E008A150A1266218A110A16700803191C2AD7
:10242E008312EA011030AA063F2A06308316A40052
:10243E000430A5005A30A600A7018A150A1266219B
:10244E008A110A167008031D322A83126A080A3A84
:10245E000319322A3F2A83120430A8002130FC00CF
:10246E007630FD00FD0B392AFC0B392A0000452A77
:10247E002A1E432A0515442A0511D929602B28083E
:10248E00043A031DDA2A4A308316B2008330B300B1
:10249E001530B4000A1259210A1670088316B400BA
:1024AE000130B2000130B3000A129E210A160A1240
:1024BE00B8240A16A1308800EA0106308316A4005B
:1024CE000130A5005A30A600A7018A150A1266210E
:1024DE008A110A16700803197C2A8312EA01DD118B
:1024EE000A1238250A16AA17D02A06308316A40017
:1024FE000230A5005A30A600A7018A150A126621DD
:10250E008A110A1670080319942A8312EA01DD1142
:10251E000A12BE270A16AA17D02A06308316A4005E
:10252E000330A5005A30A600A7018A150A126621AB
:10253E008A110A1670080319A92A8312EA010830B3
:10254E00DD06D02A06308316A4000430A5005A30CA
:10255E00A600A7018A150A1266218A110A167008AA
:10256E00031DBF2A83126A080A3A0319BF2AD02A0A
:10257E0083120530A800AA1FC62ADD15AA13213022
:10258E00FC007630FD00FD0BCA2AFC0BCA2A0000A7
:10259E00D92ADD1DD42A0515D52A05110A12B8240B
:1025AE000A16642A602B2808053A031D5F2B4A3051
:1025BE008316B2009430B3001530B4000A125921BC
:1025CE000A1670088316B4000130B2000130B30051
:1025DE000A129E210A16A7308800EA0106308316D9
:1025EE00A4000130A5005A30A600A7018A150A12D0
:1025FE0066218A110A16700803190A2B8312EA0142
:10260E004030AA062D2B06308316A4000430A500F8
:10261E005A30A600A7018A150A1266218A110A16D7
:10262E007008031D202B83126A080A3A0319202B07
:10263E002D2B83120630A8002130FC007630FD00D1
:10264E00FD0B272BFC0B272B00005E2B2A1F312B9B
:10265E000515322B05112A1F492B4A308316B2005D
:10266E000C30B3001530B4000A1259210A16700846
:10267E008316B4000230B2000130B3000A129E215C
:10268E000A165D2B4A308316B200C830B3000F30E5
:10269E00B4000A1259210A1670088316B4000230CB
:1026AE00B2000130B3000A129E210A16F52A602BE1
:1026BE00612BCA2801308316B8000A1273200A163D
:0426CE00F00108000F
:1026D2004A3083160313B200A630B3000F30B400A1
:1026E2000A1259210A1670088316B4000130B2008A
:1026F2000130B3000A129E210A164A308316B20034
:102702006130B3001530B4000A1259210A1670085C
:102712008316B4000230B2000130B3000A129E21C7
:102722000A16EA0106308316A4000130A5005A30C9
:10273200A600A7018A150A1266218A110A167008D4
:10274200031DA92B83126A080A3A0319A92B672CC5
:102752008312A8010A3028020318F92B28083F3EE9
:102762008316A00083122808083E8316B2000A12BC
:10277200FE210A1683162008840070088000831246
:102782002808123E8316B2000A12FE210A167008A9
:10279200A500A6012508F300F2017208A50073083E
:1027A200A6002808F000F00D701070082B3E83166A
:1027B200A2007208A0007308A100831228081C3E20
:1027C2008316B2000A12FE210A160030F1008316A7
:1027D2002008F00721080318013EF10722088400AF
:1027E200700880007108840A80008312A80AAB2B4B
:1027F20028308316B2000A12FE210A167008E90078
:1028020029308316B2000A12FE210A167008E80067
:102812002C308316B2000A12FE210A167008A50097
:10282200A6012508F100F0017008A5007108A600B4
:1028320070088316A0007108A1002D30B2000A12A0
:10284200FE210A167008831620078312E6008316FB
:1028520021080318013E8312E70001308316B800F5
:102862000A1273200A164A308316B200EA30B30005
:102872000F30B4000A1259210A1670088316B400E8
:102882000130B2000130B3000A129E210A16B8309C
:102892008316A4000B30A5006430A6000030A70008
:1028A2008A150A1272208A110A160630831203133D
:1028B200FB001330FC00AD30FD00FD0B5E2CFC0B69
:1028C2005E2CFB0B5E2C00000000B02C0630831641
:1028D200A4000230A5005A30A600A7018A150A12E8
:1028E20066218A110A1670080319AF2C0130B8004C
:1028F2000A1273200A164A308316B200EA30B30075
:102902001430B4000A1259210A1670088316B40052
:102912000130B2000130B3000A129E210A16B8300B
:102922008316A4000B30A5006430A6000030A70077
:102932008A150A1272208A110A16063083120313AC
:10294200FB001330FC00AD30FD00FD0BA62CFC0B90
:10295200A62CFB0BA62C00000000B02C932B013000
:0C2962008316B8000A1273200A16080041
:1030000083120313A501A601A7018501860187018B
:1030100088018901203083168500FF3086008701F2
:103020008801FF308900103003178800890183125E
:10303000871388138030831603139F0083129F1712
:103040001F137F30831681001F3095000A309300D4
:103050000A1279270A160A12F0260A160830831671
:10306000A0000730A1008A110A12DA278A150A1671
:103070000A1283270A1601308316B8008A110A1231
:1030800073208A150A160C308316B8008A110A12AA
:1030900073208A150A1605140516BF308800E20150
:1030A0000A30A700DC308316A4000530A500C83024
:1030B000A600A7010A1272200A1683120313061A29
:1030C0000A298316B0018030B1008A110A127524D2
:1030D0008A150A160130B000B1018A110A1275244E
:1030E0008A150A160230B0001230B1008A110A1295
:1030F00075248A150A160330B0000130B1008A1118
:103100000A1275248A150A160430B0000130B10085
:103110008A110A1275248A150A160530B00001308A
:10312000B1008A110A1275248A150A160630B000F9
:103130001430B1008A110A1275248A150A16073054
:10314000B0001030B1008A110A1275248A150A16CF
:103150002630B000B1018A110A1275248A150A16A8
:103160002730B000B1018A110A1275248A150A1697
:103170002830B000B1018A110A1275248A150A1686
:103180002930B000B1018A110A1275248A150A1675
:103190002A30B000B1018A110A1275248A150A1664
:1031A0002B30B000B1018A110A1275248A150A1653
:1031B0002C30B000B1018A110A1275248A150A1642
:1031C0002D30B000B1018A110A1275248A150A1631
:1031D000B001B1018A110A1275248A150A164A3003
:1031E000B200FB30B3001430B4008A110A12592126
:1031F0008A150A1670088316B4000130B200013037
:10320000B3008A110A129E218A150A16061A0A2983
:10321000000006294A308316B200D930B3001430BA
:10322000B4008A110A1259218A150A1670088316E9
:10323000B4000130B2000130B3008A110A129E219D
:103240008A150A160630FB001330FC00AD30FD0075
:10325000FD0B2829FC0B2829FB0B28290000000066
:1032600001308316B8008A110A1273208A150A16D3
:10327000A8010A30280203184D292808F000F00D93
:10328000701070082B3E84008001840A8001280899
:103290003F3E84008001A80A3929AA1390308B0090
:1032A0008A1100208A158A1169238A15263083160F
:1032B000B2008A110A12FE218A150A167008AA00A5
:1032C00027308316B2008A110A12FE218A150A16C7
:1032D0007008DD0028308316B2008A110A12FE2120
:1032E0008A150A167008E90029308316B2008A117F
:1032F0000A12FE218A150A167008E8002C3083167F
:10330000B2008A110A12FE218A150A167008A50059
:10331000A6012508F100F0017008A5007108A600BB
:103320007008ED007108EE002D308316B2008A118E
:103330000A12FE218A150A1670086D07E6006E084B
:103340000318013EE7008A110A12EB238A150A16B8
:1033500001305905F1007108003A031DB8294908E8
:10336000003A031DB8298A110A124D278A150A1638
:103370000A1213250A160A127B220A168312031355
:103380005508313A031D792A2A1F792A5608323AFC
:10339000031DF8295808303A031DF8295908303A16
:1033A000031DF8292A18F82988308316A400133041
:1033B000A500C830A600A7010A1272200A168316BB
:1033C0000313A401A5019630A600A7010A127220DA
:1033D0000A16883083160313A4001330A500C830E2
:1033E000A600A7010A1272200A16831203132A14D8
:1033F0005608323A031D2A2A5808333A031D2A2A4E
:103400005908303A031D2A2AAA182A2A8830831616
:10341000A4001330A500C830A600A7010A1272202C
:103420000A1683160313A401A5019630A600A7016E
:103430000A1272200A16883083160313A400133070
:10344000A500C830A600A7010A1272200A1683122E
:103450000313AA145608353A031D462A5808323A6F
:10346000031D462A5908303A031D462A2A19462ABE
:1034700088308316A4001330A500C830A600A70129
:103480000A1272200A16831203132A155608353AB7
:10349000031D782A5808333A031D782A5908303A10
:1034A000031D782AAA19782A88308316A4001330BD
:1034B000A500C830A600A7010A1272200A168316BA
:1034C0000313A401A5019630A600A7010A127220D9
:1034D0000A16883083160313A4001330A500C830E1
:1034E000A600A7010A1272200A1683120313AA1556
:1034F000892AAA11AA197E2A2A117F2A2A152A198D
:10350000832AAA10842AAA14AA18882A2A10892A87
:103510002A1406308316A4000130A5005A30A600F4
:10352000A7010A1266210A1670080319C02A0C3076
:10353000B8008A110A1273208A150A160A12D725B2
:103540000A1605160A12A7240A16AA1EAB2A2A1E54
:10355000AB2A2A12BF2ADD1DB12A5D1EB12ADD1158
:10356000BF2AA70A27080B3A031DBF2A013083167A
:10357000B8008A110A1273208A150A16A701E201FF
:1035800006308316A4000230A5005A30A600A70119
:103590000A1266210A1670080319072B83122708DE
:1035A0000A3A0319072B0C308316B8008A110A1245
:1035B00073208A150A160A12D7250A1605160A124A
:1035C000A7240A16AA1EE82A2A1EE82A2A12062B6F
:1035D000DD1DEE2A5D1EEE2ADD11062B27083F3E7B
:1035E00084000008003A031DFB2A27083F3E8400A0
:1035F00001308000062B27083F3E84000008013A76
:10360000031D062B27083F3E84008001E20106309F
:103610008316A4000230A5005A30A600A7010A12A2
:1036200066210A1670080319392B831227080A3AF3
:10363000031D392B0C308316B8008A110A1273202F
:103640008A150A160A12D7250A1605160A12A72481
:103650000A16AA1E2F2B2A1E2F2B2A12382BDD1DED
:10366000352B5D1E352BDD11382B0A12D6230A1699
:10367000E20106308316A4000330A5005A30A600EC
:10368000A7010A1266210A16700803196B2B831210
:1036900027080A3A031D6B2B0C308316B8008A11D9
:1036A0000A1273208A150A160A12D7250A16051659
:1036B0000A12A7240A16AA1E612B2A1E612B2A129F
:1036C0006A2BDD1D672B5D1E672BDD116A2B8A11AE
:1036D00000208A15E20106308316A4000330A500FD
:1036E0005A30A600A7010A1266210A1670080319AB
:1036F0009D2B831227080A3A03199D2B0C30831641
:10370000B8008A110A1273208A150A160A12D725E0
:103710000A1605160A12A7240A16AA1E932B2A1E99
:10372000932B2A129C2BDD1D992B5D1E992BDD11ED
:103730009C2B0A1227260A16E20106308316A400E3
:103740000430A5005A30A600A7010A1266210A1605
:1037500070080319CF2B831227080A3A031DCF2BB9
:103760000C308316B8008A110A1273208A150A16C3
:103770000A12D7250A1605160A12A7240A16AA1E27
:10378000C52B2A1EC52B2A12CE2BDD1DCB2B5D1E71
:10379000CB2BDD11CE2B8A1187208A15E201063052
:1037A0008316A4000430A5005A30A600A7010A120F
:1037B00066210A16700803191A2C831227080A3A80
:1037C00003191A2C0C308316B8008A110A127320C0
:1037D0008A150A160A12D7250A1605160A12A724F0
:1037E0000A16AA1EF72B2A1EF72B2A12192CDD1DEA
:1037F000FD2B5D1EFD2BDD11192CA70A2708093CA6
:10380000031C172C2708F000F00D701070082B3ED9
:1038100084000008F100840A0008F20000307206FB
:10382000031D142C003071060319172C192CA70A3C
:10383000FE2BE2010A129E230A160A12F5210A162D
:10384000861E252C0A12AD220A16AA1E2A2C2A1E12
:103850002A2CE201DD1D2F2C5D1E2F2CE201091800
:10386000322CE2016208FD3C0318382C1430E200CF
:103870000C308316B8008A110A1273208A150A16B2
:103880000A12D7250A1605160A12A7240A16A32912
:02389000482CC2
:080FF6002034203420340034C3
:101F2A004C34613473347434203450346F3477341D
:101F3A006534723420344F34663466342034403485
:021F4A00003461
:101F4C004C346F34613464342034733461347634FB
:101F5C0065346434203464346134743461343F3413
:021F6C0000343F
:101F6E00203420344934743465346D342034723462
:101F7E0065347334653474346534643420342034F9
:021F8E0000341D
:101F900020342034203420342034203420344F3472
:101FA0004634463420342034203420342034203445
:021FB0000034FB
:101FB20020345234653473346534743420346334D9
:101FC20075347234723465346E3474343F34203470
:021FD2000034D9
:101FD40041346C346C34203464346134743461348A
:101FE40020346C346F3461346434653464342134A3
:021FF4000034B7
:10296E002134213450346F3477346534723420344A
:10297E0020344534723472346F347234213421343D
:02298E00003413
:10299000213441346C346C34203464346134743404
:1029A00061342034733461347634653464342134D2
:0229B0000034F1
:1029B200203420345434413453344B34533420348F
:1029C2002034543449344D34453452342034203484
:0229D2000034CF
:1029D40020344E346F3420346434613474346134BC
:1029E40020346C346F34613464346534643420349A
:0229F4000034AD
:1029F600443465346634613475346C3474347334F9
:102A06002034523465347334653474346534643434
:022A160000348A
:102A180020342034203420342034203420344F34DF
:102A28004E342034203420342034203420342034D0
:022A3800003468
:102A3A002034203420342034533445345434203460
:102A4A004D3445344E345534203420342034203427
:022A5A00003446
:102A5C0020342034203420342034203420342034CA
:102A6C0020342034203420342034203420342034BA
:022A7C00003424
:102A7E0052346534733465347434203461346C34B8
:102A8E006C34203464346134743461343F34203413
:022A9E00003402
:102AA00041346C346C3420346434613474346134B3
:102AB000203472346534733465347434653464346A
:022AC0000034E0
:102AC200203431342D3459344534533420342034B5
:102AD2002F342034203432342D344E344F342034C9
:022AE2000034BE
:102AE4002034533465347434743469346E34673444
:102AF400203441346C34613472346D3420342034E5
:022B040000349B
:102B0600533465347434743469346E346734203421
:102B160043346F3475346E3474342034443457344B
:022B2600003479
:102B280045346E34613462346C3465342034633433
:102B3800683469346D34653473343A34203420345D
:022B4800003457
:102B4A0020342034533465347434743469346E3424
:102B5A006734203444346134743465342034203486
:022B6A00003435
:102B6C0020342034533465347434743469346E3402
:102B7C0067342034543469346D3465342034203453
:022B8C00003413
:102B8E002034203420342034203420342034203497
:082B9E002034203420340034FF
:102BA6004E346F342034723465347334653474347F
:022BB6000034E9
:102BB800203420342034203420342034203400348D
:102BC800533474346F34703470346534643400347E
:102BD800523475346E346E3469346E34673400346C
:04400E00222F000756
:00000001FF
